:020000040000FA
:100000000C945D000C9485000C9485000C94850084
:100010000C9485000C9485000C9485000C9485004C
:100020000C9485000C9485000C9485000C9485003C
:100030000C9485000C9485000C9485000C9485002C
:100040000C9411040C9485000C94DF030C94B903F8
:100050000C9485000C9485000C9485000C9485000C
:100060000C9485000C94850000000008000201003B
:100070000003040700000000000000000000000072
:10008000250028002B0000000000240027002A0083
:10009000040404040404040402020202020203032E
:1000A0000303030301020408102040800102040836
:1000B00010200102040810205B0411241FBECFEFA2
:1000C000D8E0DEBFCDBF11E0A0E0B1E0E4E9F6E1A9
:1000D00002C005900D92AA3FB107D9F722E0AAEF1E
:1000E000B1E001C01D92A83BB207E1F710E0CDE5F9
:1000F000D0E004C02197FE010E94420BCC35D1070D
:10010000C9F70E94A5040C94480B0C94000090E0E1
:10011000FC01EC55FF4F249180579F4FFC018491C7
:10012000882399F090E0880F991FFC01EA57FF4F50
:10013000A591B491FC01E458FF4F859194918FB73C
:10014000F894EC91E22BEC938FBF0895AF92BF929D
:10015000CF92DF92EF92FF920F931F93CF93DF9393
:100160006C017B018B01040F151FEB015E01AE18C2
:10017000BF08C017D10759F06991D601ED91FC91E4
:100180000190F081E02DC6010995892B79F7C50111
:10019000DF91CF911F910F91FF90EF90DF90CF9063
:1001A000BF90AF900895FC01538D448D252F30E012
:1001B000842F90E0821B930B541710F0CF96089574
:1001C00001970895FC01918D828D981761F0A28DA1
:1001D000AE0FBF2FB11D5D968C91928D9F5F9F7367
:1001E000928F90E008958FEF9FEF0895FC01918D1D
:1001F000828D981731F0828DE80FF11D858D90E08A
:1002000008958FEF9FEF0895FC01918D228D892F26
:1002100090E0805C9F4F821B91098F73992708950E
:1002200083E092E00E94040121E0892B09F420E0A0
:10023000822F089580E090E0892B29F00E94100120
:1002400081110C9400000895FC01A48DA80FB92F12
:10025000B11DA35ABF4F2C91848D90E001968F73EE
:100260009927848FA689B7892C93A089B1898C910D
:10027000837080648C93938D848D981306C002885C
:10028000F389E02D80818F7D80830895EF92FF9226
:100290000F931F93CF93DF93EC0181E0888F9B8DA9
:1002A0008C8D98131AC0E889F989808185FF15C063
:1002B0009FB7F894EE89FF896083E889F989808186
:1002C0008370806480839FBF81E090E0DF91CF9155
:1002D0001F910F91FF90EF900895F62E0B8D10E077
:1002E0000F5F1F4F0F731127E02E8C8D8E110CC0E6
:1002F0000FB607FCFACFE889F989808185FFF5CF31
:10030000CE010E942401F1CFEB8DEC0FFD2FF11DEA
:10031000E35AFF4FF0829FB7F8940B8FEA89FB896D
:1003200080818062CFCFCF93DF93EC01888D8823CB
:10033000B9F0AA89BB89E889F9898C9185FD03C048
:10034000808186FD0DC00FB607FCF7CF8C9185FF2D
:10035000F2CF808185FFEDCFCE010E942401E9CF4D
:10036000DF91CF91089590E0FC01E859FF4F24916F
:10037000FC01EC55FF4F3491FC01E057FF4FE49135
:10038000EE23C9F0222339F0233001F1A8F4213003
:1003900019F1223029F1F0E0EE0FFF1FE458FF4F72
:1003A000A591B4918FB7F894EC91611126C0309566
:1003B0003E233C938FBF08952730A9F02830C9F021
:1003C000243049F7809180008F7D03C080918000A8
:1003D0008F7780938000DFCF84B58F7784BDDBCFAC
:1003E00084B58F7DFBCF8091B0008F778093B00074
:1003F000D2CF8091B0008F7DF9CF3E2BDACF3FB7BF
:10040000F8948091FF0190910002A0910102B091B7
:10041000020226B5A89B05C02F3F19F00196A11D29
:10042000B11D3FBFBA2FA92F982F8827BC01CD013E
:10043000620F711D811D911D42E0660F771F881F9D
:10044000991F4A95D1F708958F929F92AF92BF92CC
:10045000CF92DF92EF92FF924B015C010E94FF016D
:100460006B017C010E94FF016C197D098E099F09B7
:10047000683E734081059105A8F321E0821A910836
:10048000A108B10888EEC80E83E0D81EE11CF11C5B
:1004900081149104A104B10429F7FF90EF90DF903B
:1004A000CF90BF90AF909F908F900895089590E067
:1004B00080E00895FC0101900020E9F73197AF0139
:1004C000481B590BBC0180EA92E00C94A600CF9324
:1004D000DF93EC0160E08E810E94B30161E08E81C8
:1004E0000E94B30160E08E810E94B3018BE891E02D
:1004F0000197F1F7DF91CF910895CF92DF92EF92BC
:10050000FF920F931F93CF93DF936C017C0187E0E1
:10051000E80EF11CD0E0C0E0062F10E0B8010C2E70
:1005200002C0759567950A94E2F76170F7018191B1
:100530007F010E94B3012196C430D10579F7C6012D
:10054000DF91CF911F910F91FF90EF90DF90CF90AF
:100550000C946702CF92DF92EF92FF920F931F935A
:10056000CF93DF93EC01F62E642F8C810E94B301B0
:100570008D818F3F19F060E00E94B3010F2D10E0D4
:100580008F8584FF25C06E0187E0C80ED11CF12C39
:10059000E12CB8010E2C02C0759567950A94E2F71C
:1005A0006170F60181916F010E94B301FFEFEF1AB4
:1005B000FF0A88E0E816F10461F7CE01DF91CF91E0
:1005C0001F910F91FF90EF90DF90CF900C946702F6
:1005D000B80184E0759567958A95E1F7CE010E9490
:1005E0007D026F2DCE01DF91CF911F910F91FF9072
:1005F000EF90DF90CF900C947D0240E0682F80EA6E
:1006000092E00C94AA02CF93DF93823029F4909168
:10061000AF0298609093AF028093B3021092B4023D
:1006200080E48093B50280E18093B60280E58093F8
:10063000B7028091A4020E9487008091A5028F3F9B
:1006400011F00E9487008091A6020E948700C0EAF4
:10065000D2E09E01205A32408091AF0284FD0AC050
:1006600084E090E02196281739073CF48E810E949F
:100670008700EFCF88E090E0F5CF8BE39DE0019716
:10068000F1F760E08091A4020E94B30160E08091E4
:10069000A6020E94B3018091A5028F3F19F060E08D
:1006A0000E94B3018091AF0284FD39C063E080EA0B
:1006B00092E00E947D02CBE4D6E4CE010197F1F7EF
:1006C00063E080EA92E00E947D022197F1F763E007
:1006D00080EA92E00E947D0283E592E00197F1F7C3
:1006E00062E080EA92E00E947D028091AF02806227
:1006F0000E94FD0284E08093B0028CE00E94FD0223
:1007000081E00E94FD028BE39FE10197F1F782E017
:100710008093B10286E0DF91CF910C94FD0280625C
:100720000E94FD028BE496E40197F1F78091AF02FD
:1007300080620E94FD0283E592E00197F1F78091CB
:10074000AF0280620E94FD02D0CF9091B302891760
:1007500010F08FEF890FE82FF0E0E056FD4F84890D
:1007600080680C94FD0241E00E94AA0281E090E0C2
:1007700008951F920F920FB60F9211242F933F935B
:100780004F935F936F937F938F939F93AF93BF9399
:10079000EF93FF9383E092E00E942401FF91EF9199
:1007A000BF91AF919F918F917F916F915F914F9189
:1007B0003F912F910F900FBE0F901F9018951F9291
:1007C0000F920FB60F9211242F938F939F93EF9355
:1007D000FF93E0911302F09114028081E0911902DD
:1007E000F0911A0282FD1BC0908180911C028F5FE4
:1007F0008F7320911D02821741F0E0911C02F0E0FE
:10080000ED5FFD4F958F80931C02FF91EF919F91BB
:100810008F912F910F900FBE0F901F901895808190
:10082000F4CF1F920F920FB60F9211242F933F9384
:100830008F939F93AF93BF938091FB019091FC01A5
:10084000A091FD01B091FE013091FA0123E0230F48
:100850002D3758F50196A11DB11D2093FA01809303
:10086000FB019093FC01A093FD01B093FE018091E8
:10087000FF0190910002A0910102B0910202019645
:10088000A11DB11D8093FF0190930002A09301026E
:10089000B0930202BF91AF919F918F913F912F91A1
:1008A0000F900FBE0F901F90189526E8230F029609
:1008B000A11DB11DD2CFE3E0F2E01382128288EED7
:1008C00093E0A0E0B0E084839583A683B78384E0BF
:1008D00091E09183808385EC90E09587848784EC18
:1008E00090E09787868780EC90E0918B808B81ECFD
:1008F00090E0938B828B82EC90E0958B848B86ECDE
:1009000090E0978B868B118E128E138E148EE0EAF8
:10091000F2E01382128286E191E0918380838EE07F
:1009200084838FEF85838FE0868380E1878381E1F5
:10093000808782E1818783E182871386148615860A
:100940001686178681E00C940303789484B5826040
:1009500084BD84B5816084BD85B5826085BD85B563
:10096000816085BD80916E00816080936E001092E1
:10097000810080918100826080938100809181005C
:1009800081608093810080918000816080938000ED
:100990008091B10084608093B1008091B00081604B
:1009A0008093B00080917A00846080937A00809177
:1009B0007A00826080937A0080917A0081608093CF
:1009C0007A0080917A00806880937A001092C1004A
:1009D00082E00E940303E0911302F091140282E08E
:1009E0008083E0910F02F09110021082E0911102D9
:1009F000F09112028FEC808310921B02E09117029B
:100A0000F091180286E08083E0911502F0911602C1
:100A1000808180618083E0911502F09116028081CF
:100A200088608083E0911502F091160280818068D1
:100A30008083E0911502F091160280818F7D808382
:100A400080E00E94A5038EE191E00E945A0281E0BD
:100A50000E94A50381E391E00E945A0268EB7BE0CB
:100A600080E090E00E94240281E00E94FD028BE37E
:100A70009FE10197F1F782E00E94870083E00E94E6
:100A8000870084E00E94870085E00E94870086E05E
:100A90000E94870087E00E94870088E00E9487000C
:100AA0008BE00E9487008CE00E9487008DE00E940E
:100AB0008700C0E0D0E061E082E00E94B30161E025
:100AC00083E00E94B30161E084E00E94B30161E031
:100AD00085E00E94B30160E086E00E94B30161E01E
:100AE00087E00E94B30161E088E00E94B30160E00A
:100AF0008BE00E94B30160E08CE00E94B30161E0F2
:100B00008DE00E94B30180E00E94A50386E491E09D
:100B10000E945A0281E00E94A50386E591E00E94AE
:100B20005A0268EE73E080E090E00E94240261E0E7
:100B300082E00E94B30161E083E00E94B30161E0C2
:100B400084E00E94B30161E085E00E94B30161E0AE
:100B500086E00E94B30161E087E00E94B30161E09A
:100B600088E00E94B30160E08BE00E94B30160E086
:100B70008CE00E94B30161E08DE00E94B30180E04F
:100B80000E94A50386E491E00E945A0281E00E943F
:100B9000A50386E591E00E945A0268EE73E080E0CA
:100BA00090E00E94240261E082E00E94B30161E0D3
:100BB00083E00E94B30161E084E00E94B30160E041
:100BC00085E00E94B30160E086E00E94B30160E02E
:100BD00087E00E94B30160E088E00E94B30160E01A
:100BE0008BE00E94B30160E08CE00E94B30161E001
:100BF0008DE00E94B30180E00E94A50387E691E0AA
:100C00000E945A0281E00E94A50386E591E00E94BD
:100C10005A0268EE73E080E090E00E94240261E0F6
:100C200082E00E94B30160E083E00E94B30161E0D2
:100C300084E00E94B30161E085E00E94B30161E0BD
:100C400086E00E94B30161E087E00E94B30161E0A9
:100C500088E00E94B30160E08BE00E94B30160E095
:100C60008CE00E94B30161E08DE00E94B30180E05E
:100C70000E94A50387E691E00E945A0281E00E944B
:100C8000A50386E591E00E945A0268EE73E080E0D9
:100C900090E00E94240261E082E00E94B30160E0E3
:100CA00083E00E94B30161E084E00E94B30161E04F
:100CB00085E00E94B30160E086E00E94B30161E03C
:100CC00087E00E94B30161E088E00E94B30160E028
:100CD0008BE00E94B30160E08CE00E94B30161E010
:100CE0008DE00E94B30180E00E94A50386E791E0B9
:100CF0000E945A0281E00E94A50387E891E00E94C9
:100D00005A0268EE73E080E090E00E94240260E006
:100D100082E00E94B30161E083E00E94B30161E0E0
:100D200084E00E94B30160E085E00E94B30160E0CE
:100D300086E00E94B30161E087E00E94B30161E0B8
:100D400088E00E94B30160E08BE00E94B30160E0A4
:100D50008CE00E94B30161E08DE00E94B30180E06D
:100D60000E94A50386E791E00E945A0281E00E945A
:100D7000A50387E891E00E945A0268EE73E080E0E4
:100D800090E00E94240261E082E00E94B30161E0F1
:100D900083E00E94B30161E084E00E94B30161E05E
:100DA00085E00E94B30160E086E00E94B30160E04C
:100DB00087E00E94B30161E088E00E94B30160E037
:100DC0008BE00E94B30160E08CE00E94B30161E01F
:100DD0008DE00E94B30180E00E94A50386E791E0C8
:100DE0000E945A0281E00E94A50387E891E00E94D8
:100DF0005A0268EE73E080E090E00E94240261E015
:100E000082E00E94B30161E083E00E94B30160E0F0
:100E100084E00E94B30161E085E00E94B30161E0DB
:100E200086E00E94B30160E087E00E94B30161E0C8
:100E300088E00E94B30160E08BE00E94B30160E0B3
:100E40008CE00E94B30161E08DE00E94B30180E07C
:100E50000E94A50386E791E00E945A0281E00E9469
:100E6000A50387E891E00E945A0268EE73E080E0F3
:100E700090E00E94240260E082E00E94B30161E001
:100E800083E00E94B30161E084E00E94B30160E06E
:100E900085E00E94B30160E086E00E94B30160E05B
:100EA00087E00E94B30160E088E00E94B30160E047
:100EB0008BE00E94B30160E08CE00E94B30161E02E
:100EC0008DE00E94B30180E00E94A50386E791E0D7
:100ED0000E945A0281E00E94A50387E891E00E94E7
:100EE0005A0268EE73E080E090E00E94240261E024
:100EF00082E00E94B30161E083E00E94B30161E0FF
:100F000084E00E94B30161E085E00E94B30161E0EA
:100F100086E00E94B30161E087E00E94B30160E0D7
:100F200088E00E94B30160E08BE00E94B30160E0C2
:100F30008CE00E94B30161E08DE00E94B30180E08B
:100F40000E94A50386E791E00E945A0281E00E9478
:100F5000A50387E891E00E945A0268EE73E080E002
:100F600090E00E94240260E082E00E94B30161E010
:100F700083E00E94B30161E084E00E94B30160E07D
:100F800085E00E94B30160E086E00E94B30161E069
:100F900087E00E94B30161E088E00E94B30160E055
:100FA0008BE00E94B30161E08CE00E94B30160E03D
:100FB0008DE00E94B30180E00E94A50387E991E0E3
:100FC0000E945A0281E00E94A50387EA91E00E94F4
:100FD0005A0268EE73E080E090E00E94240261E033
:100FE00082E00E94B30161E083E00E94B30161E00E
:100FF00084E00E94B30161E085E00E94B30160E0FB
:1010000086E00E94B30160E087E00E94B30161E0E6
:1010100088E00E94B30160E08BE00E94B30161E0D0
:101020008CE00E94B30160E08DE00E94B30180E09B
:101030000E94A50387E991E00E945A0281E00E9484
:10104000A50387EA91E00E945A0268EE73E080E00F
:1010500090E00E94240261E082E00E94B30161E01E
:1010600083E00E94B30160E084E00E94B30161E08C
:1010700085E00E94B30161E086E00E94B30160E078
:1010800087E00E94B30161E088E00E94B30160E064
:101090008BE00E94B30161E08CE00E94B30160E04C
:1010A0008DE00E94B30180E00E94A50387E991E0F2
:1010B0000E945A0281E00E94A50387EA91E00E9403
:1010C0005A0268EE73E080E090E00E94240260E043
:1010D00082E00E94B30161E083E00E94B30161E01D
:1010E00084E00E94B30160E085E00E94B30160E00B
:1010F00086E00E94B30160E087E00E94B30160E0F7
:1011000088E00E94B30160E08BE00E94B30161E0DF
:101110008CE00E94B30160E08DE00E94B30180E0AA
:101120000E94A50387E991E00E945A0281E00E9493
:10113000A50387EA91E00E945A0268EE73E080E01E
:1011400090E00E94240261E082E00E94B30161E02D
:1011500083E00E94B30161E084E00E94B30161E09A
:1011600085E00E94B30161E086E00E94B30161E086
:1011700087E00E94B30160E088E00E94B30160E074
:101180008BE00E94B30161E08CE00E94B30160E05B
:101190008DE00E94B30180E00E94A50387E991E001
:1011A0000E945A0281E00E94A50387EA91E00E9412
:1011B0005A0268EE73E080E090E00E94240261E051
:1011C00082E00E94B30161E083E00E94B30161E02C
:1011D00084E00E94B30161E085E00E94B30160E019
:1011E00086E00E94B30161E087E00E94B30161E004
:1011F00088E00E94B30161E08BE00E94B30160E0EF
:101200008CE00E94B30160E08DE00E94B30180E0B9
:101210000E94A50387EB91E00E945A0281E00E94A0
:10122000A50389EC91E00E945A0268EE73E080E029
:1012300090E00E94240261E082E00E94B30161E03C
:1012400083E00E94B30161E084E00E94B30161E0A9
:1012500085E00E94B30161E086E00E94B30161E095
:1012600087E00E94B30161E088E00E94B30161E081
:101270008BE00E94B30160E08CE00E94B30160E06B
:101280008DE00E94B30180E00E94A50387EB91E00E
:101290000E945A0281E00E94A50389EC91E00E941D
:1012A0005A0268EE73E080E090E00E94240261E060
:1012B00082E00E94B30161E083E00E94B30161E03B
:1012C00084E00E94B30160E085E00E94B30160E029
:1012D00086E00E94B30160E087E00E94B30160E015
:1012E00088E00E94B30161E08BE00E94B30160E0FE
:1012F0008CE00E94B30160E08DE00E94B30180E0C9
:101300000E94A50387EB91E00E945A0281E00E94AF
:10131000A50389EC91E00E945A0268EE73E080E038
:1013200090E00E94240261E082E00E94B30160E04C
:1013300083E00E94B30161E084E00E94B30161E0B8
:1013400085E00E94B30161E086E00E94B30161E0A4
:1013500087E00E94B30161E088E00E94B30161E090
:101360008BE00E94B30160E08CE00E94B30160E07A
:101370008DE00E94B30180E00E94A50387EB91E01D
:101380000E945A0281E00E94A50389EC91E00E942C
:101390005A0268EE73E080E090E00E94240261E06F
:1013A00082E00E94B30160E083E00E94B30161E04B
:1013B00084E00E94B30161E085E00E94B30160E037
:1013C00086E00E94B30161E087E00E94B30161E022
:1013D00088E00E94B30161E08BE00E94B30160E00D
:1013E0008CE00E94B30160E08DE00E94B30180E0D8
:1013F0000E94A50389ED91E00E945A0281E00E94BB
:10140000A5038AEE91E00E945A0268EE73E080E044
:1014100090E00E94240260E082E00E94B30161E05B
:1014200083E00E94B30161E084E00E94B30160E0C8
:1014300085E00E94B30160E086E00E94B30161E0B4
:1014400087E00E94B30161E088E00E94B30161E09F
:101450008BE00E94B30160E08CE00E94B30160E089
:101460008DE00E94B30180E00E94A50389ED91E028
:101470000E945A0281E00E94A5038AEE91E00E9438
:101480005A0268EE73E080E090E00E94240261E07E
:1014900082E00E94B30161E083E00E94B30161E059
:1014A00084E00E94B30161E085E00E94B30160E046
:1014B00086E00E94B30160E087E00E94B30161E032
:1014C00088E00E94B30161E08BE00E94B30160E01C
:1014D0008CE00E94B30160E08DE00E94B30180E0E7
:1014E0000E94A50389ED91E00E945A0281E00E94CA
:1014F000A5038AEE91E00E945A0268EE73E080E054
:1015000090E00E94240261E082E00E94B30161E069
:1015100083E00E94B30160E084E00E94B30161E0D7
:1015200085E00E94B30161E086E00E94B30160E0C3
:1015300087E00E94B30161E088E00E94B30161E0AE
:101540008BE00E94B30160E08CE00E94B30160E098
:101550008DE00E94B30180E00E94A50389ED91E037
:101560000E945A0281E00E94A5038AEE91E00E9447
:101570005A0268EE73E080E090E00E94240260E08E
:1015800082E00E94B30161E083E00E94B30161E068
:1015900084E00E94B30160E085E00E94B30160E056
:1015A00086E00E94B30160E087E00E94B30160E042
:1015B00088E00E94B30161E08BE00E94B30160E02B
:1015C0008CE00E94B30160E08DE00E94B30180E0F6
:1015D0000E94A50389ED91E00E945A0281E00E94D9
:1015E000A5038AEE91E00E945A0268EE73E080E063
:1015F00090E00E94240261E082E00E94B30161E079
:1016000083E00E94B30161E084E00E94B30161E0E5
:1016100085E00E94B30161E086E00E94B30161E0D1
:1016200087E00E94B30160E088E00E94B30161E0BE
:101630008BE00E94B30160E08CE00E94B30160E0A7
:101640008DE00E94B30180E00E94A50389ED91E046
:101650000E945A0281E00E94A5038AEE91E00E9456
:101660005A0268EE73E080E090E00E942402209726
:1016700009F421CA0E941001882309F41CCA0E949F
:10168000000019CAEE0FFF1F0590F491E02D099498
:10169000F894FFCF000000004601A600D30093019C
:1016A0000401E200F60000000000B303A6005702A8
:1016B0005602202054524146464943204C4947484F
:1016C00054532020005368696D616E746120547218
:1016D0006166666963202020200020202052494452
:1016E00045205341464520202000202057454152A7
:1016F0002048454C4D45545320200020202052497D
:101700004445205341464520200020444F4E275455
:10171000204F56455254414B4520002057454152D9
:10172000205345415442454C5420002020444F4E04
:101730002754204452494E4B202000202020414E67
:10174000442044524956452020200043414C4C201F
:1017500048454C504C494E45204E4F2E00202020ED
:1017600020202039393920202020202000464F4CCD
:101770004C4F5720414E44204F42455920002054A1
:0E1780005241464649432052554C45532000E5
:107E0000112484B714BE81FFF0D085E080938100F7
:107E100082E08093C00088E18093C10086E0809377
:107E2000C20080E18093C4008EE0C9D0259A86E02C
:107E300020E33CEF91E0309385002093840096BBD3
:107E4000B09BFECF1D9AA8958150A9F7CC24DD24C4
:107E500088248394B5E0AB2EA1E19A2EF3E0BF2EE7
:107E6000A2D0813461F49FD0082FAFD0023811F036
:107E7000013811F484E001C083E08DD089C08234E0
:107E800011F484E103C0853419F485E0A6D080C0E4
:107E9000853579F488D0E82EFF2485D0082F10E0AE
:107EA000102F00270E291F29000F111F8ED06801E7
:107EB0006FC0863521F484E090D080E0DECF843638
:107EC00009F040C070D06FD0082F6DD080E0C81688
:107ED00080E7D80618F4F601B7BEE895C0E0D1E017
:107EE00062D089930C17E1F7F0E0CF16F0E7DF06D8
:107EF00018F0F601B7BEE89568D007B600FCFDCFD4
:107F0000A601A0E0B1E02C9130E011968C91119780
:107F100090E0982F8827822B932B1296FA010C0160
:107F200087BEE89511244E5F5F4FF1E0A038BF0790
:107F300051F7F601A7BEE89507B600FCFDCF97BE46
:107F4000E89526C08437B1F42ED02DD0F82E2BD052
:107F50003CD0F601EF2C8F010F5F1F4F84911BD097
:107F6000EA94F801C1F70894C11CD11CFA94CF0C13
:107F7000D11C0EC0853739F428D08EE10CD085E9AC
:107F80000AD08FE07ACF813511F488E018D01DD067
:107F900080E101D065CF982F8091C00085FFFCCF94
:107FA0009093C60008958091C00087FFFCCF809118
:107FB000C00084FD01C0A8958091C6000895E0E648
:107FC000F0E098E1908380830895EDDF803219F02E
:107FD00088E0F5DFFFCF84E1DECF1F93182FE3DFCA
:107FE0001150E9F7F2DF1F91089580E0E8DFEE27F6
:047FF000FF270994CA
:027FFE00040479
:00000001FF
